:020000040800F2
:1000000000200020D9010008AF010008B10100085C
:1000100000000000000000000000000000000000E0
:10002000000000000000000000000000B301000814
:100030000000000000000000B5010008B701000842
:1000400029020008290200082902000829020008E4
:1000500029020008290200082902000829020008D4
:1000600029020008290200082902000829020008C4
:1000700029020008290200082902000829020008B4
:1000800029020008290200080000000029020008D7
:100090002902000829020008290200082902000894
:1000A0002902000829020008290200082902000884
:1000B00029020008000000002902000800000000DA
:1000C00010B5064C2378002B07D1054B002B02D02E
:1000D000044800E000BF0123237010BD040000208D
:1000E0000000000074020008044B10B5002B03D080
:1000F0000349044800E000BF10BDC04600000000F6
:1001000008000020740200080020002011010008EF
:100110001D4841691D4A114341611D485521C16077
:100120001C491D4A0A6000220023194D2B69032532
:100130002B421BD001252B420ED002252B420FD083
:1001400004252B4210D008252B4213D000E0ECE709
:1001500000F011F8013215E000F00DF8023211E064
:1001600000F00BF801320DE0AA220BE0023200F0A1
:1001700004F807E0D9E7094C01E0094CFFE7013C2E
:10018000FDD170474A61D0E7001002400000060030
:10019000000000480004004855550000C05C1500F0
:1001A000C027090010B5FFF7B3FF002010BDFEE720
:1001B000FEE77047704710B500F002F810BD7047B9
:1001C000034A1168034B1B785B1813607047C046E5
:1001D00020000020000000200D488546FFF7EFFFBB
:1001E0000C480D490D4A002302E0D458C450043392
:1001F000C4188C42F9D30A4A0A4C002301E0136068
:100200000432A242FBD300F011F8FFF7CBFFFEE768
:1002100000200020000000200400002094020008BC
:100220000400002024000020FEE7000070B5002636
:100230000C4C0D4D641BA410A64209D1002600F001
:1002400019F80A4C0A4D641BA410A64205D170BDD2
:10025000B300EB5898470136EEE7B300EB589847E8
:100260000136F2E78C0200088C02000890020008B8
:100270008C020008F8B5C046F8BC08BC9E46704722
:0C028000F8B5C046F8BC08BC9E467047AC
:04028C00E90000087D
:04029000C1000008A1
:040294000100000065
:04000005080001D915
:00000001FF
